:020000040000FA
:040000001BEF00F002
:100008000182D9CF60F0DACF61F0F2BC9DA803D0AD
:100018009EB81AEC09F0F2BC9DAA03D09EBA35EC42
:1000280009F061C0DAFF60C0D9FF01921100ACEF9E
:0200380009F0CD
:1006000000010000000A00000064000000E8030090
:100610000010270000A086010040420F008096983D
:100620000000E1F50500CA9A3B010000001000003F
:100630000000010000001000000000010000001098
:100640000000000001000000103031323334353634
:10065000373839414243444546002020436F6E7687
:100660006572736F7220412F4400202020456E6513
:10067000726F2D3230323000256C752E25342E33BA
:100680006C750025580A0000F1D2250E00018C1966
:10069000D8B43AD0000120EE02F07851D926795131
:1006A000DA22DE50DE10D8B419D0000120EE02F0BC
:1006B0007851D9267951DA22DECF7EF0DDCF7FF076
:1006C00001D8D4D20500FA6E00017E51FD6E7F5133
:1006D000FE6EFF6AFA5000018C51120078C0D9FFFB
:1006E00079C0DAFFDECF7EF0DDCF7FF07EC0D9FFAC
:1006F0007FC0DAFF8CC0DFFF78C0D9FF79C0DAFF96
:10070000DE2A000EDD22B2D2000E0001896F000E3B
:10071000886F000E0001836F7AC0F6FF7BC0F7FF81
:10072000F86A0800F55075EC09F00001D8A03CD03B
:10073000000E0001896F000E886F88C062F089C0CA
:1007400063F0000E0001656F0A0E646F4EEC09F055
:1007500062C088F063C089F0D00E00017E6FFF0E8A
:100760007F6F7AC0F6FF7BC0F7FFF86A0800F5508C
:10077000806F816B7E5180277F51812380510001E2
:100780008827000181510001892300017A4B7B2BCE
:100790007AC0F6FF7BC0F7FFF86A0800F55075ECE9
:1007A00009F00001D8B0C9D77AC0F6FF7BC0F7FFC7
:1007B000F86A0800F5502E0AD8A438D000017A4B08
:1007C0007B2B000E00018B6F000E8A6F22D08AC037
:1007D00062F08BC063F0000E0001656F0A0E646F5B
:1007E0004EEC09F07AC0F6FF7BC0F7FFF86A08000C
:1007F000F55000016227000E6323D00E6225000130
:100800008A6FFF0E0001632100018B6F00017A4B9C
:100810007B2B7AC0F6FF7BC0F7FFF86A0800F55023
:1008200075EC09F00001D8A011D0D1D7000E00015D
:100830008B6F000E8A6F0AD00001838907D00001F8
:10084000838F21D0C00E000183131DD07AC0F6FF24
:100850007BC0F7FF00017A4B7B2BF86A0800F5CFCD
:100860008CF000018C51000AD8B40FD2580AD8B4C9
:10087000E6D7340AD8B4E0D7190AD8B4E3D70D0ABA
:10088000D8B4DDD7F3D1000183A919D07CC0D9FF3A
:100890007DC0DAFFDFCF7EF0040EDE26DFCF7FF0F3
:1008A000000EDD227EC0D9FF7FC0DAFFDECF84F0EC
:1008B000DECF85F0DECF86F0DECF87F01BD07CC0A8
:1008C000D9FF7DC0DAFFDFCF7EF0020EDE26DFCF5C
:1008D0007FF0000EDD227EC0D9FF7FC0DAFFDECFC1
:1008E00080F0DDCF81F080C084F081C085F0000110
:1008F000866B876B00018A518B11D8A457D00001F9
:100900008451851186118711D8A450D000018A4BDB
:100910008B2B4CD0010E00018C6F0A0E00018C193C
:10092000D8B44DD000018C51040D010EF324F66EA5
:10093000060EF420F76EF86A000EF8220900F55052
:100940000001845D0900F55085590900F55086596C
:100950000900F5508759D8A032D000018C2BDDD783
:10096000010E00018C6F080E00018C19D8B427D03D
:1009700000018C51040D290EF324F66E060EF420AE
:10098000F76EF86A000EF8220900F5500001845D48
:100990000900F55085590900F55086590900F550B0
:1009A0008759D8A00CD000018C2BDDD700018351D2
:1009B000C00B800AD8B4D4D7400AD8B4ABD7000152
:1009C0008C5100017E6F7F6B00018A5100017E5DBA
:1009D0007F51800A806F00018B51800A000180598D
:1009E000D8B003D08AC08CF015D000018C51000122
:1009F0007E6F7F6B7E5100018A5D8B51800A000102
:100A0000806F7F51800A8059D8B004D08CC08AF0A2
:100A100000018B6B00018C5100017E6F7F6B000128
:100A2000885100017E5D7F51800A806F00018951ED
:100A3000800A00018059D8B007D000018C51000114
:100A4000885F000E895B05D0000E0001896F000EE3
:100A5000886F000188518911D8B4FFD0000120EEC1
:100A600002F07851D9267951DA22DE50DE10D8B45E
:100A700018D0000120EE02F07851D9267951DA22FF
:100A8000DECF7EF0DDCF7FF001D820D00500FA6EFA
:100A900000017E51FD6E7F51FE6EFF6AFA50200EFE
:100AA000120078C0D9FF79C0DAFFDECF7EF0DDCF4B
:100AB0007FF07EC0D9FF7FC0DAFF200EDF6E78C0E6
:100AC000D9FF79C0DAFFDE2A000EDD220001880797
:100AD000D8A08907BFD78AC07EF08BC07FF0000105
:100AE000D8907E377F37D8907E377F37010E7E25AE
:100AF000F66E060E7F21F76EF86A000EF8220900E6
:100B0000F5CF66F00900F5CF67F00900F5CF68F082
:100B10000A00F5CF69F084C062F085C063F086C03A
:100B200064F087C065F00CEC07F062C06FF063C042
:100B300070F064C071F065C072F00A0E0001736F4E
:100B4000000E746F000E756F000E766F4EEC07F09E
:100B500000016F51300F00018C6F46D084C062F0ED
:100B600085C063F086C064F087C065F08AC07EF0FF
:100B70008BC07FF00001D8907E377F37D8907E37CA
:100B80007F37290E7E25F66E060E7F21F76EF86AF6
:100B9000000EF8220900F5CF66F00900F5CF67F0E6
:100BA0000900F5CF68F00A00F5CF69F00CEC07F00A
:100BB000000162510F0B0001826F490E0001822576
:100BC000F66EF76A060EF722F86A000EF8220800A1
:100BD000F5CF8CF009D000018351C00B800AD8B446
:100BE000BDD7400AD8B477D7000120EE02F0785183
:100BF000D9267951DA22DE50DE10D8B419D000019E
:100C000020EE02F07851D9267951DA22DECF7EF03B
:100C1000DDCF7FF001D821D00500FA6E00017E51B2
:100C2000FD6E7F51FE6EFF6AFA5000018C5112007A
:100C300078C0D9FF79C0DAFFDECF7EF0DDCF7FF05C
:100C40007EC0D9FF7FC0DAFF8CC0DFFF78C0D9FF3C
:100C500079C0DAFFDE2A000EDD2200018A07D8A063
:100C60008B078A29B8E18B29D8A4B5D77AC0F6FFBB
:100C70007BC0F7FF00017A4B7B2BF86A0800F5CFA9
:100C80008CF000018C51D8A400D5000E0001796FC2
:100C9000000E786F12000001676FF00E8116F00EE3
:100CA0009316939A9490939C8A9A8B908A9C140E94
:100CB0000001666F790EE82EFED7662FFCD700F094
:100CC00000F0300E12EC08F0070E0001666F7D0E8A
:100CD000E82EFED7662FFCD7300E12EC08F0210E5E
:100CE000E82EFED700F0300E12EC08F00A0EE82EC7
:100CF000FED7FDEC08F00009D8A4FBD7320E12ECA9
:100D000008F0FDEC08F00009D8A4FBD700016751FA
:100D100012EC08F0FDEC08F00009D8A4FBD7080E8F
:100D200012EC08F0FDEC08F00009D8A4FBD70F0E78
:100D300012EC08F0FDEC08F00009D8A4FBD7010E76
:100D400012EC08F0FDEC08F00009D8A4FBD7040E63
:100D500012EC08F0FDEC08F00009D8A4FBD7800ED7
:100D6000B5EC07F0FDEC08F00009D8A4FBD70F0E96
:100D700012EC08F01200FDEC08F00009D8A4FBD733
:100D8000010E12EC08F0FDEC08F00009D8A4FBD726
:100D9000800EB5EC07F0FDEC08F00009D8A4FBD7F5
:100DA0005A0E0001636F060E646F63516411D8A47C
:100DB000000E656F82EC07F0FDEC08F00009D8A486
:100DC000FBD7C00EB5EC07F0FDEC08F00009D8A485
:100DD000FBD76A0E0001636F060E646F63516411E6
:100DE000D8A4000E656F82EC07F0060E0001676F55
:100DF000130E666FAD0EE82EFED7662FFCD7672F59
:100E0000FAD700F000F0FDEC08F00009D8A4FBD7F9
:100E1000010E12EC08F01200000E00016A6F000EC5
:100E20006B6F000E6C6F000E6D6F6651671168116D
:100E30006911D8B42AD0010E6E6F06D0D8906637EB
:100E40006737683769376E2B69AFF8D7D8906A373C
:100E50006B376C376D376651625D67516359685106
:100E6000645969516559D8A009D06651625F6751CC
:100E7000635B6851645B6951655B6A81D8906933D3
:100E80006833673366336E2FE1D76AC062F06BC098
:100E900063F06CC064F06DC065F012000001735126
:100EA000741175117611D8B424D0010E776F06D065
:100EB000D8907337743775377637772B76AFF8D786
:100EC00073516F5D745170597551715976517259E2
:100ED000D8A008D073516F5F7451705B7551715B0E
:100EE0007651725BD8907633753374337333772FC2
:100EF000E7D76FC06FF070C070F071C071F072C052
:100F000072F012001ED0FDEC08F00009D8A4FBD747
:100F100063C0F6FF64C0F7FF65C0F8FFF8BA03D0FE
:100F20000800F55005D0F6CFE9FFF7CFEAFFEF5004
:100F30003AEC08F00001010E6327000E6423000E56
:100F4000652363C0F6FF64C0F7FF65C0F8FFF8BA19
:100F500003D00800F55005D0F6CFE9FFF7CFEAFF40
:100F6000EF500009D8B41200CED70001656FF00E23
:100F70009316F00E8116000165510001626F636BDC
:100F8000800E6213000E6313040E646F63356333C7
:100F90006233642FFBD762510F0B81128A9A8B90B8
:100FA000DDEC09F08A8CDDEC09F08A9CF00E8116EC
:100FB000000165510F0B8112DDEC09F08A8CDDEC2C
:100FC00009F08A9C0F0E9312120086EC09F0A0EC37
:100FD00009F0BBEC06F0F28EF28CBC0E0001996FAA
:100FE000020EDFEC08F062C097F063C098F0830E49
:100FF00000018D6F060E8E6F97C08FF098C090F035
:101000009FEC08F0400EB5EC07F00001B251D8B4E7
:10101000E7D77EEC08F00001996F000199513AEC96
:1010200008F0DED70001636FF00E9316F00E811604
:10103000000163390F0B0F0B81128A9A8B90DDEC44
:1010400009F08A8CDDEC09F08A9CF00E8116000113
:1010500063510F0B8112DDEC09F08A8CDDEC09F095
:101060008A9C0F0E931200016305D8A41200C2ECF3
:1010700009F012000001626FF00E9316F00E811657
:10108000000162390F0B0F0B81128B808A9ADDEC05
:1010900009F08A8CDDEC09F08A9CF00E81160001C3
:1010A00062510F0B8112DDEC09F08A8CDDEC09F046
:1010B0008A9C0F0E931212000001626F0001C95149
:1010C000D8B4FCD79DB803D062C0ADFF15D09D98B1
:1010D0009A0E0001B625D96EDA6A000EDA2262C0D5
:1010E000DFFF0001B62B0F0E0001B66503D0000E26
:1010F0000001B66F0001C9079D881200000E0001B3
:10110000626F0001B251D8B4FCD7AA0E0001B3251A
:10111000D96EDA6A000EDA22DF500001626F000138
:10112000B32B070E0001B36503D0000E0001B36FAF
:101130009D9A0001B2079D8A000162511200000EC3
:101140000001936F000E946FAC0E956F130E966FA7
:101150008F0E916F000E926F930E786F000E796F65
:101160008DC07AF08EC07BF0910E7C6F000E7D6F8B
:1011700044EC03F078C08DF079C08EF012009D9A97
:101180009D98080EB86E900EAB6E240EAC6E330EAA
:10119000AF6E000EB06E000E0001B66F000E0001C3
:1011A000B56F100E0001C96F000E0001B46F000E84
:1011B0000001B36F000E0001B26F9D8A12000001A2
:1011C000666F66C064F0000164476447C2506419EA
:1011D000C30B6419C26EC280C282C2B2FED7C450B1
:1011E0000001656F646BC35064250001626F000EDF
:1011F000000165210001636F12008A8A8B90DDEC8B
:1012000009F08A8CDDEC09F081A60AD08A9CDDEC1D
:1012100009F08A8CDDEC09F08A9C8A9A010E120092
:101220008A9CDDEC09F08A8CDDEC09F08A9C8A9AB4
:10123000000E1200100E0001C96115D09A0E0001B7
:10124000B525D96EDA6A000EDA22DF50AD6E0001E4
:10125000B52B0F0E0001B56503D0000E0001B56F70
:101260000001C92B12009D981200ABA202D0AB98CE
:10127000AB88AA0E0001B425D96EDA6A000EDA2214
:10128000AECFDFFF0001B42B070E0001B46503D021
:10129000000E0001B46F0001B22B12000001625178
:1012A0006403F3CF66F0F4CF67F062516503F35047
:1012B000672763516403F350672766C062F067C015
:1012C00063F01200000E896E000E8A6E000E8B6EA7
:1012D000FE0E926E9368BF0E946E000E7F6E1E0E11
:1012E0007E6E800E7C6EF19E12000001646F000E17
:1012F0000001636F3A0E646105D02F0E646502D061
:10130000010E636F63C062F062311200EAEC09F013
:1013100062EC09F0E3EC09F0B7EC09F093EC09F0AA
:10132000BFEC08F012007F0ED56E000ED76E9C0E3B
:10133000D66E9C0E0001C86FF294E8EC09F0120022
:10134000280E4BEC06F0060E12EC08F00E0E12EC16
:1013500008F0CDEC09F0120000EE9AF02E0EEE6AC5
:10136000E806FDE1019001920001E5EF07F0010EB2
:10137000C26E100EC16EA40EC06E000EC36E000EC3
:10138000C46E1200140E0001626F790EE82EFED7B3
:10139000622FFCD700F000F01200070E0001626F10
:1013A0007D0EE82EFED7622FFCD712000001636F7E
:1013B000000163515CEC08F0120000F000F000F056
:1013C00000F000F01200300ED36E000E9B6E120083
:0813D000D58E1200D09E120020
:020000040020DA
:08000000FFFFFFFFFFFFFFFF00
:020000040030CA
:0E000000FF021F1EFF8B81FF0FC00FE00F409D
:00000001FF
